:020000040800F2
:1000000060170020BD0A0008ED070008EF07000890
:10001000F3070008F7070008FB07000800000000CE
:10002000000000000000000000000000FF070008C2
:100030000108000800000000030800080508000887
:10004000D70A0008D70A0008D70A0008DB700008A2
:10005000D70A0008D70A00089F450008D7450008BE
:10006000334600088F460008D70A0008D70A000860
:10007000D70A0008D70A0008D70A0008D70A0008DC
:10008000D70A0008D70A0008D70A0008D70A0008CC
:10009000D70A0008D70A0008D70A0008D70A0008BC
:1000A000DB64000833640008EF640008D70A000826
:1000B0005F6400087364000887640008D70A0008BA
:1000C000D70A0008D70A0008D70A0008D70A00088C
:1000D000D70A0008A35E0008C9690008A76D0008D8
:1000E000D70A0008BD700008D70A00080365000899
:1000F000AF64000817650008D70A0008D70A00088F
:10010000D70A0008D70A00089B640008D70A00082D
:10011000F36B0008D70A00080B8100080D95000852
:10012000D70A0008D70A0008D70A0008D70A00082B
:10013000D70A0008D70A0008D70A0008D70A00081B
:10014000D70A0008D70A0008D70A0008D70A00080B
:10015000D70A0008D70A0008D70A0008CB5E0008B3
:10016000D70A0008D70A0008D70A0008D70A0008EB
:10017000D70A0008D70A0008D70A0008D70A0008DB
:10018000D70A0008D70A000800F002F800F061F86A
:100190000AA090E8000C82448344AAF10107DA45E2
:1001A00001D100F056F8AFF2090EBAE80F0013F0D3
:1001B000010F18BFFB1A43F001031847002B010081
:1001C000202B01000A444FF0000C10F8013B13F003
:1001D000070408BF10F8014B1D1108BF10F8015BA0
:1001E000641E05D010F8016B641E01F8016BF9D193
:1001F00013F0080F1EBF10F8014BAD1C0C1B09D1EA
:100200006D1E58BF01F801CBFAD505E014F8016B5B
:1002100001F8016B6D1EF9D59142D6D370470000ED
:100220000023002400250026103A28BF78C1FBD8FF
:10023000520728BF30C148BF0B607047642910F0D7
:100240004981002070471FB510F057FE1FBD10B543
:1002500010BD10F092FA1146FFF7F5FF00F0E9F833
:1002600010F0B0FA03B4FFF7F2FF03BC05F0E2FAB6
:1002700008B50C200090FE48B0F9002004230021AE
:10028000084604F0F9FB0C200090F948B0F9022070
:1002900004230121002004F0EFFB0C200090F4481F
:1002A000B0F9042004230221002004F0E5FB0C2017
:1002B0000090F04890ED000ABDEEC00A10EE102A42
:1002C00007230321002004F0D7FB0C200090E9480D
:1002D00090ED010ABDEEC00A10EE102A072304219A
:1002E000002004F0C9FB0C200090E2480423052103
:1002F0008268002004F0C0FB0C200090DE480288D9
:1003000003230621002004F0B7FB0C200090DB48FB
:10031000028804230021402004F0AEFB0C20009052
:10032000D648428804230121402004F0A5FB0C207C
:100330000090D248828804230221402004F09CFBD4
:100340000C200090CD48C28804230321402004F0F3
:1003500093FB0C200090C9480289042319464020D1
:1003600004F08AFB0C200090C44842890423052134
:10037000402004F081FB0C200090C1480288042337
:100380000721642004F078FB0C2001230090BD4875
:1003900002780721502004F06FFB08BD10B5022041
:1003A00006F076FD28B94FF48071B74800F0A0FD43
:1003B00004E04FF48071B44800F09CFDAD49098918
:1003C00008B207F04BF8B1480068B8B9A9490989E3
:1003D00008B2A84991ED011AF0EE410A91ED001A18
:1003E000B0EE410A40F2DC524FF41661DFEDA81A7C
:1003F0009FEDA71A08F0A1FEA4490860A348006871
:10040000012815D19B49098908B29A4991ED011A31
:10041000F0EE410A91ED001AB0EE410A40F2DC52D2
:100420004FF46171DFED9B1A9FED9A1A08F085FE7B
:1004300010BD1FB500244FF4A06000F05FFBA820A2
:1004400003F03CFB00F0E8FA06F0CEF9EBE092484E
:100450000078012859D191480078012808D100205E
:100460008F49087087480078012839D1012437E086
:100470008A480078022808D10120894908708148FB
:10048000007801282CD101242AE084480078032830
:1004900008D10220824908707A48007801281FD1CB
:1004A00001241DE07D480078042808D103207C4900
:1004B000087074480078012812D1012410E07748B0
:1004C0000078052808D10420754908706D48007827
:1004D000012805D1012403E000206A4908700024A6
:1004E000102370A200211E2004F027FB102370A20D
:1004F0000221002004F021FB102001230090684815
:1005000002780221642004F0B7FA634800780228D8
:1005100059D162480078012808D100206849087044
:1005200058480078012839D1012437E05B48007829
:10053000022808D101206249087052480078012839
:100540002CD101242AE055480078032808D1022044
:100550005B4908704B48007801281FD101241DE039
:100560004E480078042808D10320554908704548B2
:100570000078012812D1012410E0484800780528AD
:1005800008D104204E4908703E480078012805D162
:10059000012403E000203B4908700024102349A2F5
:1005A00000211E2004F0C9FA102349A202210020D4
:1005B00004F0C3FA10200123009041480278022180
:1005C000642004F059FA3448007803280AD12D48F1
:1005D0000078012800D10124102341A200211E200F
:1005E00004F0ABFA2C48007804280AD1254800789A
:1005F000012800D1012410233DA200211E2004F077
:100600009CFA2548007828B910233DA200211E201D
:1006100004F093FA1020012300901F48027804216F
:10062000642004F029FA002C3FF411AF4FF48071DC
:10063000154800F05FFCC82006F098FB0D490989B9
:1006400008B206F0ECFE0B49098908B206F0F7FE85
:10065000472006F0B9FA04F0F3F84FF480710A4825
:1006600000F048FC4FF47A7003F08AFA50E0000082
:1006700000100020C40F0020F8090020B80F00204F
:10068000E209002009000020001402400C000020B4
:100690000000FA44000000000A0000200B000020C7
:1006A0003B0A0020726564206D6F64652020200085
:1006B0005245445F535445503A202020000000002A
:1006C0003D0A00206772656564206D6F64652000D7
:1006D00047524545445F535445503A2000000000BE
:1006E00072656D6F7465206D6F6465202000000079
:1006F00074657374206D6F64652020200000000015
:10070000706C6163652063686F7365200000000092
:1007100006F000FD57E02C480078012801D10BF0CD
:10072000F9FA29480078022801D108F06FFF26481D
:100730000078032801D10FF069F9234800780428D4
:1007400001D1FFF72BFE002003F04FFA1F4800896C
:1007500000B21F49C88010211D4805F089FB1D48C3
:100760000078401C1B49087008460078FF2801D11A
:100770000020087017480078642190FBF1F201FB1B
:10078000120098B91449002001F0AAF912488078A3
:10079000009011484378027810A101A80FF05EFE86
:1007A0000C2301AA0721002004F0C7F909480078AA
:1007B000142190FBF1F201FB120008B9FFF758FD7C
:1007C000052003F0DDF9A6E70A000020C40F002091
:1007D00000100020000000200100002025303264BD
:1007E0003A253032643A253032640000704700BF49
:1007F000FEE700BFFEE700BFFEE700BFFEE7704771
:1008000070477047704700000CB5002001900090C1
:100810007648006840F480307449086000BF73482F
:10082000006800F4003000900198401C019000988E
:1008300018B90198B0F5A04FF1D16C48006800F4E8
:10084000003010B10120009001E0002000900098DD
:10085000012846D165484030006840F08050634927
:10086000403108606248006840F4404060490860D8
:100870005E48083000685D49083108600846006835
:1008800040F4004008600846006840F4A05008604A
:100890005848091F0860081F006840F08070091F51
:1008A000086000BF5148006800F000700028F9D0CF
:1008B00040F20570504908604C480830006820F04C
:1008C00003004A49083108600846006840F0020009
:1008D000086000BF45480830006800F00C00082898
:1008E000F8D10CBD10B54548006840F4700043498C
:1008F00008603E48006840F001003C490860002064
:100900003A4908310860394800683D49084037498C
:1009100008603C48091D0860081F006820F480201A
:10092000091F0860002031490C310860FFF76CFF97
:100930004FF0006031498039086010BD70B500206B
:100940000022022300240221284D08352D6805F0DD
:100950000C0020B1042806D0082834D107E02A4D25
:100960002A4E356033E02A4D284E35602FE01F4D6A
:100970002D1D2D68C5F380541C4D2D1D2D6805F0CF
:100980003F0154B1224DB5FBF1F5184E361D3668C6
:10099000C6F3881605FB06F209E01B4DB5FBF1F521
:1009A000124E361D3668C6F3881605FB06F20F4D4B
:1009B0002D1D2D68C5F301456D1C6B00B2FBF3F5D1
:1009C000124E356003E0104D104E356000BF00BF81
:1009D000064D08352D68C5F303150E4E705D0B4DA1
:1009E0002D68C540094E356070BD000000380240DA
:1009F0000070004008544007003C024088ED00E0D1
:100A0000FFFFF6FE103000240024F4001000002048
:100A100000127A001400002010B503F047F903F02B
:100A2000CFF804F036FA4FF4E131002004F010FF63
:100A30004FF41651012004F00BFF4FF4E131032075
:100A400004F006FF4FF41651022004F001FF07F0F6
:100A500043FA07F00EFB03F040FD06F0F9F906F04B
:100A600063FA0021042006F0F3FA4FF48071114874
:100A700000F040FA40F2473242F21071062005F0D1
:100A800067FA05F096FD002006F08AF808F092FC5F
:100A90000AE00948006808B9012000E00020064982
:100AA0000860C82003F06CF805F007FE0028F0D1BC
:100AB00010BD000000140240A48242420948804751
:100AC00009480047FEE7FEE7FEE7FEE7FEE7FEE730
:100AD000FEE7FEE7FEE7FEE704480549054A064B48
:100AE00070470000E5080008890100086011002037
:100AF000601700206013002060130020324901437A
:100B0000324A1160704770B5002100230F22C4786B
:100B10001CB32E4C246804F4E064C4F5E064C4F310
:100B20000721C1F10404E3B20A4144789C40E1B2D8
:100B30008478144021430C07210E254C057861551B
:100B4000047804F01F050124AC4005786D11AD0058
:100B500005F1E025C5F8004109E0047804F01F051F
:100B60000124AC401B4D0678761145F8264070BD37
:100B7000194A0A400243154B1B1F1A60704739B1CE
:100B8000124A121D12680243104B1B1D1A6006E028
:100B90000E4A121D126882430C4B1B1D1A607047CF
:100BA000042808D14FF0E021096941F004014FF019
:100BB000E022116107E04FF0E021096921F0040112
:100BC0004FF0E022116170470000FA050CED00E0E3
:100BD00000E400E080E100E080FFFF1F00204149C9
:100BE0000860091D0860091D0860091D08603E486D
:100BF0003C4914310860704700213A498279002A43
:100C00003AD00A46126803689A430B461A600A1DD6
:100C1000126803689A430B1D1A60027911440A682E
:100C200003681A430A602F4A0832126803689A431D
:100C30002C4B08331A601A1D126803689A43294B1B
:100C40000C331A604279102A0ED11A1F12680368F9
:100C50001A43244B08331A601A1D126803681A439A
:100C6000204B0C331A600DE01E49427911440A688A
:100C700003681A430A6005E0027911440A680368B0
:100C80009A430A6070470021016001710C21417193
:100C90000021817170471349103109680143114ADD
:100CA000103211607047014600200E4A143212685B
:100CB0000A400AB1012000E00020704709491431C0
:100CC0000860704701460020064A143212680A4044
:100CD0000AB1012000E00020704702491431086089
:100CE00070470000003C0140FFFF7F0010B5044644
:100CF0009848844208D10121084600F03CFC0021BC
:100D0000012000F038FC76E09348844208D10121AC
:100D1000022000F030FC0021022000F02CFC6AE0F0
:100D20008E48844208D10121042000F024FC0021D7
:100D3000042000F020FC5EE08948844208D10121B3
:100D4000082000F018FC0021082000F014FC52E0FC
:100D50008448844208D10121102000F00CFC0021BD
:100D6000102000F008FC46E07F48844208D10121B1
:100D7000202000F000FC0021202000F0FCFB3AE0E5
:100D80007A48844208D10121402000F0F4FB002180
:100D9000402000F0F0FB2EE07548844208D101218C
:100DA000802000F0E8FB0021802000F0E4FB22E03E
:100DB0007048844208D10121801500F0DCFB00213D
:100DC000A01500F0D8FB16E06B48844208D1012141
:100DD000401500F0D0FB0021601500F0CCFB0AE0CC
:100DE0006648844207D10121001500F0C4FB0021B0
:100DF000201500F0C0FB10BDF0B50A46002100230D
:100E0000002400BF3DE0012505FA01F3156805EA5D
:100E100003049C4234D105684F000326BE40B5430D
:100E2000056015794E00B5400668354305601579B3
:100E3000012D02D01579022D16D185684F000326A9
:100E4000BE40B543856055794E00B5408668354350
:100E50008560456801268E40B543456045689679B2
:100E60008E40B6B235434560C5684F000326BE408C
:100E7000B543C560D5794E00B540C6683543C560F9
:100E8000491C1029BFD3F0BD4FF6FF71016000214E
:100E9000017141718171C171704708B54FF48032A1
:100EA0000092009A0A430092009AC261C161009ABE
:100EB000C261C2690092C269009208BD0246002068
:100EC00013690B400BB1012000E000207047014680
:100ED000086980B270470246002053690B400BB18D
:100EE000012000E0002070470146486980B2704749
:100EF00001837047418370470AB1018300E0418359
:100F000070474161704742694A4042617047F0B59D
:100F1000002300244D07ED0E02FA05F3CE1000F178
:100F2000200555F826504E07F70E0F26BE40B54354
:100F3000CF1000F1200646F82750CE1000F1200512
:100F400055F8265045EA0304CE1000F1200545F877
:100F50002640F0BD000002400004024000080240AC
:100F6000000C024000100240001402400018024031
:100F7000001C0240002002400024024000280240E1
:100F800010B50121080700F029FB00214FF0805027
:100F900000F024FB10BD5249086270470146002052
:100FA000504A106820F0E0000843106070474C4938
:100FB000086170474A49A031086070474849A43128
:100FC0000860704701460020464A106820F44040FF
:100FD00008431060704742490864704740494864BC
:100FE000704730B13F49096841F440213D4A1160E2
:100FF00005E03C49096821F440213A4A11607047F4
:1010000018B10121364AD16202E00021344AD1628E
:10101000704718B10121324A916202E00021304A42
:10102000916270472E494862704710B50246002011
:101030002C4B186840F6034398431043294B186023
:10104000294B1B6843F00403274C2360012901D17D
:1010500030BF00E020BF244B1B6823F00403224C68
:10106000236010BD10B5024600201E4B186840F6E4
:101070000343984310431B4B18601B4B1B6843F002
:101080000403194C2360012901D130BF00E020BFC7
:10109000154B1B6823F00403134C236010BD11484B
:1010A000006840F002000F4908600F48006840F0F7
:1010B00004000D49086000BF00BF30BF7047014603
:1010C0000020084A52680A400AB1012000E00020CE
:1010D00070470449096841EA8001024A116070477B
:1010E00000000E420070004010ED00E0F94800687A
:1010F00040F00100F74908600020F6490831086017
:10110000F4480068F4490840F2490860F348091DB2
:101110000860F348EF4984310860F0481038091D31
:101120000860EC48006820F48020EA49086000204C
:10113000E8490C310860E7498C31086070470021AC
:10114000E44A921C117011460870704710B50146B0
:101150000022002300204A11012A02D1DD4C23681D
:1011600008E0022A03D1DB4C7034236802E0D94C3A
:101170007434236801F01F02012494401C400CB118
:10118000012000E0002010BD38B5002000900024B0
:10119000002500BF3120FFF7D9FF05460098401C0D
:1011A00000900098B0F5A04F01D0002DF2D0312072
:1011B000FFF7CCFF08B1012400E00024204638BD31
:1011C00001460020C34A106820F0F80040EAC10040
:1011D00010607047C349086070470021BD4A7032F3
:1011E00011701170012802D004280AD104E00121F5
:1011F000B84A7032117005E00521B64A703211709C
:1012000000E000BF00BF7047B7490860704770B585
:10121000049C41EA82150126C6EB530645EA0645C1
:10122000054345EA0465AB4E361D356070BDAD49DA
:1012300008667047820142EA0172A64B84331A6045
:101240007047A8498866704710B5830143EA016377
:1012500043EA02739F4C8834236010BDA14908679C
:101260007047A049C864704702460020994B083374
:10127000186820F0EC6042EA01031843954B0833EC
:101280001860704702460020924B0833186820F01F
:10129000784042EA010318438E4B083318607047C8
:1012A000014600208B4A0832106820F003000843F2
:1012B0001060704787480830006800F00C007047E5
:1012C00001460020834A0832106820F0F0000843ED
:1012D00010607047014600207E4A0832106820F4F2
:1012E000E05008431060704701460020794A0832F8
:1012F000106820F4604040EAC10010607047F0B50B
:10130000002100220024022500260223714F083705
:101310003F6807F00C0121B1042905D0082937D115
:1013200005E0724F076036E0714F076033E0694FA8
:101330003F1D3F68C7F38056664F3F1D3F6807F06B
:101340003F036EB16A4FB7FBF3F7DFF888C10CF1CA
:10135000040CDCF800C0CCF3881C07FB0CF40CE098
:10136000624FB7FBF3F7DFF86CC10CF1040CDCF84B
:1013700000C0CCF3881C07FB0CF4564F3F1D3F68A0
:10138000C7F301477F1C7D00B4FBF5F7076002E05F
:10139000564F076000BF00BF4E4F08373F6807F049
:1013A000F0010909534F7A5C0768D7404760494FFD
:1013B00008373F6807F4E051890A4E4F7A5C476866
:1013C000D7408760434F08373F6807F46041490BB7
:1013D000484F7A5C4768D740C760F0BD002100F4F1
:1013E0004072B2F5407F0AD13A4A0832116821F4BE
:1013F000F811414A02401143364A08321160354A19
:1014000070321268C0F30B031A43324B70331A6008
:10141000704735494439086070473349403908609E
:10142000704736490860704701460020294A8C32CF
:10143000106820F01F004A1E1043264A8C321060AC
:10144000704701460020234A8C32106820F4F8507F
:101450004A1E40EA02201F4A8C3210607047014643
:1014600000201C4A8C32106820F4401008431060A1
:10147000704701460020174A8C32106820F4400063
:1014800008431060704701460020124A8C321068F1
:1014900020F44030084310607047194908607047D5
:1014A00039B10C4A3032126802430A4B30331A60A9
:1014B00006E0084A303212688243064B30331A6025
:1014C0007047F9B1034A343212680243014B343396
:1014D0001A601CE000380240FFFFF6EA10300024DA
:1014E0000030002000004742800E47420024F400F4
:1014F00000127A0024000020FFFCFF0F5C0147422D
:10150000E01147428F4A126882438E4B1A6070473F
:1015100039B18C4A121D126802438A4B1B1D1A6096
:1015200006E0884A121D12688243864B1B1D1A6012
:10153000704739B1834A0C3212680243814B0C3335
:101540001A6006E07F4A0C32126882437D4B0C33EE
:101550001A60704739B17B4A103212680243794BE6
:1015600010331A6006E0774A103212688243754BD6
:1015700010331A60704739B1724A243A1268024334
:10158000704B243B1A6006E06E4A243A126882438C
:101590006C4B243B1A60704739B16A4A203A126892
:1015A0000243684B203B1A6006E0664A203A126804
:1015B0008243644B203B1A60704739B1614A1C3A40
:1015C000126802435F4B1C3B1A6006E05D4A1C3AFE
:1015D000126882435B4B1C3B1A60704739B1594A11
:1015E000143A12680243574B143B1A6006E0554AFE
:1015F000143A12688243534B143B1A60704739B156
:10160000504A103A126802434E4B103B1A6006E0F3
:101610004C4A103A126882434A4B103B1A6070479A
:1016200039B1484A1C3212680243464B1C331A60D7
:1016300006E0444A1C3212688243424B1C331A6053
:10164000704739B13F4A2032126802433D4B203384
:101650001A6006E03B4A203212688243394B20333D
:101660001A60704739B1374A243212680243354B49
:1016700024331A6006E0334A243212688243314B25
:1016800024331A60704739B12E4A2C321268024353
:101690002C4B2C331A6006E02A4A2C321268824303
:1016A000284B2C331A60704739B1264A3032126801
:1016B0000243244B30331A6006E0224A303212686B
:1016C0008243204B30331A607047012808D11D49EE
:1016D0003C31096841F008011A4A3C32116007E0C8
:1016E00018493C31096821F00801164A3C32116062
:1016F000704739B1134A273A12780243114B273BFE
:101700001A7006E00F4A273A127882430D4B273BA6
:101710001A7070470B484030006840F080700949EB
:1017200040310860704701460020064A283A126896
:101730000A400AB1012000E0002070470149263923
:10174000087070473438024008B50022009200202B
:101750000021CA22F94B1A6053221A60F74A183A3C
:10176000126822F0A002F54B183B1A6000BFF34A42
:10177000183A126802F02001009A521C0092009A56
:10178000B2F5003F01D00029F1D0EC4A183A1268B6
:1017900002F020020AB1012000E00020FF22E74B06
:1017A0001A6008BD08B50022009200200021E34A1B
:1017B000183A126802F04002E2B9421EDF4B183BB1
:1017C0001A6000BFDD4A183A126802F04001009A20
:1017D000521C0092009AB2F5803F01D00029F1D04E
:1017E000D64A183A126802F040020AB1012002E01B
:1017F000002000E0012008BD38B500200090002442
:101800000025CA20CD49086053200860FFF7CAFFB1
:1018100000B952E00020C9492439086042F20110A1
:10182000091D0860081D006800F00700091D086018
:1018300000BFC2481838006800F004040098401C3B
:1018400000900098B0F5803F01D0002CF1D0BB484B
:101850001838006800F0040008B900252DE0B748EA
:101860001C3800680020B5491C3908604FF6FF702D
:10187000B24910390860B248091F08600020AF491A
:101880000C390860091D0860091D0860AB49083162
:101890000860AA4918310860A84920310860091D6C
:1018A0000860A64918390860A4491C310860FFF790
:1018B0004BFF08B9002500E00125FF209F49086083
:1018C000284638BD9D481838006820F080009B49A4
:1018D00018390860704730B504460025CA2097497A
:1018E000086053200860FFF75DFF00B91DE09348D2
:1018F0001C38006820F0400090491C3908600846F8
:101900000068216808438D491C3908608B491439E7
:10191000A068086008460068A18840EA014087493D
:1019200014390860FFF7CEFF0125FF2083490860C6
:10193000284630BD002101607F214160FF21816088
:10194000704718B1FF217D4A116004E0CA217B4A2B
:10195000116053211160704730B504460025CA203C
:101960007649086053200860FFF71CFF00B914E0B7
:1019700044B172481C38006840F010006F491C39AF
:10198000086007E06D481C38006820F010006B49C3
:101990001C390860FFF796FF0125FF2067490860A2
:1019A000284630BDCA21654A11605321116040B1FB
:1019B00062491C39096841F02001604A1C3A1160F3
:1019C00007E05E491C39096801F0DF015B4A1C3AF7
:1019D0001160FF21594A116070470146002204E05E
:1019E000501CC2B2A1F10A00C1B20A29F8DA1007EC
:1019F00041EA10607047014600BF080900EB800013
:101A0000420001F00F001044C0B270472DE9F041D0
:101A100005460C460026002755B948481C38006882
:101A200000F0400000B102E00020E07000BF0EE0D6
:101A300042481C38006800F0400020B12078FFF7D1
:101A4000DAFF064602E00020E07000BF00BF55B19B
:101A500020780004617840EA0120A1780843E17809
:101A600040EA014611E02078FFF7B7FF4FEA00484F
:101A70006078FFF7B2FF48EA0028A078FFF7ADFFD3
:101A800048EA0008E07848EA0046CA202B49086086
:101A900053200860FFF786FE08B9002714E02948A4
:101AA0003040264924390860FFF70CFF23481C38D2
:101AB000006800F0200030B9FFF746FE08B90027A3
:101AC00002E0012700E00127FF201C49086038469A
:101AD000BDE8F0810021C1700170417081707047D4
:101AE00070B506460C460025144824380068154990
:101AF00000EA0105C5F305402070C5F306206070BB
:101B000005F07F00A07005F48000000CE0705EB965
:101B10002078FFF770FF20706078FFF76CFF60702F
:101B2000A078FFF768FFA07070BD00200349091D71
:101B300008680249203909687047000024280040DD
:101B4000FF007F007F7F7F002DE9F04105460C46B6
:101B5000002600274DB9607800F01000102804D14D
:101B6000607820F010000A30607005B908E06078F5
:101B7000FFF741FF0646A078FFF73DFF064600BF8E
:101B800055B1E0780004617840EA0120A17808436B
:101B9000217840EA413611E0E078FFF71EFF4FEA76
:101BA00000486078FFF719FF48EA0028A078FFF79F
:101BB00014FF48EA0008207848EA4036CA20FE4967
:101BC000086053200860FFF7EDFD08B9002714E016
:101BD000FA483040F84920390860FFF773FEF648AC
:101BE0001C38006800F0200030B9FFF7ADFD08B9DF
:101BF000002702E0012700E00127FF20EE490860EE
:101C00003846BDE8F08101210170817041700021EA
:101C1000C170704770B506460C460025E64820386E
:101C20000068E64900EA0105280CE070C5F30420CD
:101C3000607005F03F00A070C5F3423020705EB9BF
:101C4000E078FFF7D8FEE0706078FFF7D4FE6070B0
:101C5000A078FFF7D0FEA07070BD2DE9F0410546D9
:101C60000E46144600276DB9D3481C38006800F0B2
:101C7000400000B102E00020E07000BFA06800B9A1
:101C80001AE019E0CC481C38006800F0400020B190
:101C90002078FFF7B0FE074602E00020E07000BFAA
:101CA000A06820B9207BFFF7A6FE074604E0207B52
:101CB000FFF7A1FE074600BF95B1207800046178C8
:101CC00040EA0120A1780843E17840EA0140217B05
:101CD00040EA0160A1680843616840EA01071BE02F
:101CE0002078FFF77AFE4FEA00486078FFF775FE2C
:101CF00048EA0028A078FFF770FE48EA0008E0787C
:101D000048EA0048207BFFF768FE48EA0060A168C7
:101D10000843616840EA0107CA20A74908605320C8
:101D20000860B6F5807F03D1A3480838076002E059
:101D3000A148001F0760FF209F490860BDE8F081AF
:101D40000021C170017041708170816001210173B7
:101D50000021416070472DE9F04106460F461446C8
:101D60000025B7F5807F03D193480838056802E065
:101D70009148001F0568C5F305402070C5F3062093
:101D8000607005F07F00A07005F48000000CE0702A
:101D9000C5F30560207305F08040A06005F0803039
:101DA00060607EB92078FFF726FE20706078FFF72C
:101DB00022FE6070A078FFF71EFEA070207BFFF768
:101DC0001AFE2073BDE8F08138B502460024009465
:101DD00000230020CA24784D2C6053242C6041B18C
:101DE000754C1C3C24681443734D1C3D2C60012031
:101DF0001EE0714C1C3C246894436F4D1C3D2C60CC
:101E000000BF6D4C183C246804EA1223009C641C3B
:101E10000094009CB4F5803F01D0002BF1D0664CBB
:101E2000183C246804EA12240CB9002000E00120C8
:101E3000FF24614D2C6038BD30B50023CA245E4DAF
:101E40002C6053242C6041EA0203B0F5807F03D15B
:101E5000594C2034236002E0574C24342360FF2483
:101E6000554D2C6030BD01460020B1F5807F05D175
:101E7000514A20321268C2F30E0004E04E4A243266
:101E80001268C2F30E007047CA214B4A11605321F9
:101E9000116049491C39096821F00701464A1C3A7A
:101EA00011601146096801431160FF21424A116027
:101EB0007047CA21404A1160532111603E491039D0
:101EC0000860FF21116070473B481038006880B2FD
:101ED000704718B501460023009300220020CA2352
:101EE000354C23605323236049B1334B1C3B1B68A3
:101EF00043F48063304C1C3C236001201FE02E4BD8
:101F00001C3B1B6823F480632B4C1C3C236000BFEC
:101F1000294B183B1B6803F00402009B5B1C0093D9
:101F2000009BB3F5803F01D0002AF1D0224B183B33
:101F30001B6803F004030BB9002000E00120FF231D
:101F40001D4C236018BDCA221B4B1A6053221A6015
:101F5000194A1C3A126822F48022174B1C3B1A6063
:101F60001A46126840EA01031A43134B1C3B1A60DD
:101F7000FF22114B1A6070470F481C38006800F4AC
:101F800080207047CA220C4B1A6053221A600A4AFA
:101F90001C3A126822F4E002074B1C3B1A601A46F6
:101FA000126840EA01031A43034B1C3B1A60FF22EC
:101FB000014B1A6070470000242800403FFFFF00DB
:101FC00070B504460D460026CA20F6490860532025
:101FD0000860FFF7E7FB00B907E044EA0500F149B4
:101FE0000C390860FFF76EFC0126FF20ED49086000
:101FF000304670BD30B504460025CA20E949086066
:1020000053200860FFF7CEFB00B914E044B1E54867
:102010001C38006840F08000E2491C39086007E085
:10202000E0481C38006820F08000DE491C39086058
:10203000FFF748FC0125FF20DA490860284630BD3B
:10204000CA21D84A11605321116040B1D5491C39C9
:10205000096841F40001D34A1C3A116007E0D149F4
:102060001C39096821F40001CE4A1C3A1160FF2195
:10207000CC4A11607047CA21CA4A116053211160CD
:10208000C8491C39096821F40021C64A1C3A11606C
:102090001146096801431160FF21C24A116070476F
:1020A00070B5034600200024CA25BE4E3560532576
:1020B0003560BC4D183D2D6805F4803555B100E004
:1020C000641CB84D183D2D6805F4803515B1B4F584
:1020D000003FF5D1B34D183D2D6805F480353DB96D
:1020E00043EA01051543AF4E18363560012000E084
:1020F0000020FF25AB4E356070BD10B50A460021AB
:10210000A84B1C3B1B6840F6080423EA04011AB1E3
:1021100040F40063194300E00143CA23A14C23604B
:10212000532323609F4B1C3B1960FF23236010BD8A
:102130002DE9F04180460C461546002600279948B7
:102140000C300068984900EA010696481030006893
:10215000964900EA0107C6F305402070C6F3062041
:10216000607006F07F00A07006F48000000CE07044
:102170000020E870C7F30420687007F03F00A870E3
:10218000C7F342302870B8F1000F17D12078FFF75D
:1021900032FC20706078FFF72EFC6070A078FFF7AB
:1021A0002AFCA0706878FFF726FC6870A878FFF713
:1021B00022FCA8702878FFF71EFC2870BDE8F0818B
:1021C000784814300068704741B9764A1C3212686A
:1021D00022EA4002734B1C331A6007E0714A1C323A
:1021E000126842EA40026F4B1C331A60704739B1E3
:1021F0006C4A1C32126802436A4B1C331A6006E0B8
:10220000684A1C3212688243664B1C331A6070475E
:1022100064491C31096821F4C051624A1C321160C2
:10222000114609680143116070475E491C31096815
:1022300021F4E0615B4A1C321160114609680143D8
:102240001160704757491C31096821F4C041554A53
:102250001C3211601146096801431160704740B19A
:1022600050491C31096841F080014E4A1C3211600E
:1022700007E04C491C31096821F08001494A1C32B1
:102280001160704740B147491C31096821F4004191
:10229000444A1C32116007E042491C31096841F48C
:1022A0000041404A1C321160704708B5002200927C
:1022B0003C4A2C320092009A02EB80020092009A73
:1022C000116008BD08B501460020009035482C304B
:1022D0000090009800EB810000900098006808BD15
:1022E00030491C31096821F480312E4A1C321160BA
:1022F000114609680143116070472A491C31096879
:1023000021F40031274A1C3211601146096801434B
:102310001160704723491C31096821F48021214A4A
:102320001C32116011460968014311607047F0B515
:1023300004460D4600270026CA201A49086053208B
:10234000086018481838006800F0080050B100E034
:10235000761C14481838006800F0080010B1B6F573
:10236000805FF5D10F481838006800F0080098B970
:102370000C481C38006800F0100058B945EA040009
:10238000084908310860FFF7DFF908B9002704E0C1
:10239000012702E0002700E00027FF200149086034
:1023A0003846F0BD242800407F7F7F003FFFFF00BC
:1023B000CA223D4B1A6053221A6091B13A4A1C3A24
:1023C000126820F004031A43374B1C3B1A60364A4C
:1023D0001C32126800F004031A43334B1C331A609A
:1023E00011E0314A1C3A126820F004039A432E4B44
:1023F0001C3B1A602C4A1C32126800F004039A43FA
:10240000294B1C331A60FF22274B1A60704710B506
:10241000014600200022244B183B1B68234C03EA92
:10242000040202EA01030BB1012000E0002010BD0C
:1024300081B241F080011C4A183A126802F0800211
:1024400062EA0101184A183A1160704730B5014636
:10245000002000220023144C1C34246804F00402E1
:10246000114C1C3C24680C4002EAD13544EA0503B7
:102470000D4C183C246804EA11121BB194B20CB143
:10248000012000E0002030BD002101098AB242F0A5
:102490008002054B183B1B6803F0800363EA0202CD
:1024A000014B183B1A607047242800407F3F010011
:1024B00010B50446FB48844208D101218014FFF77F
:1024C0009EF80021A014FFF79AF83CE0F6488442F9
:1024D00008D101210014FFF781F800212014FFF733
:1024E0007DF830E0F148844208D10121C013FFF7A4
:1024F00075F80021E013FFF771F824E0EC488442FE
:1025000008D101214014FFF77AF800216014FFF789
:1025100076F818E0E748844209D101210805FFF761
:102520006EF800214FF48010FFF769F80BE0E248E5
:10253000844208D101214805FFF761F800214FF4DA
:102540000010FFF75CF810BD10B50022028802F4FD
:1025500041520B884C8823438C882343CC882343E7
:102560000C8923434C8923438C892343CC892343FF
:102570001A430280838B4FF2FF74234083830B8ABC
:10258000038210BD2DE9F04F0025022300244FF0F7
:10259000010900220026002794469046B0F81CA0AE
:1025A0004FF2400B0AEA0B0AA0F81CA04FF0020AF7
:1025B000A0F820A0858BD1F808A0BAF1020F01D1B4
:1025C00000BF82E0B1F804A0BAF1000F02D14FF0D1
:1025D000010901E04FF00209DFF8E0A2DAF800A0FB
:1025E0000AF4000ABAF1000F09D0DFF8D0A2DAF835
:1025F00000A02AF4000ADFF8C4B2CBF800A0DFF88C
:10260000BCA20AF17C0ADAF800A0CAF3881CDFF841
:10261000ACA20AF17C0ADAF800A0CAF30278DFF86B
:102620009CA2AAF1040ADAF800A00AF03F07DFF83A
:102630008CA2AAF1040ADAF800A00AF4800ABAF51A
:10264000800F08D1DFF878A2BAFBF7FA0AFB0CFA80
:10265000BAFBF8F607E0DFF86CA2BAFBF7FA0AFB60
:102660000CFABAFBF8F6B1F806A0BAF5007F0ED165
:102670004FEA162A0AEB8A0A4FEA4A0AD1F808B04A
:10268000BAFBFBFA0AF1050A1FFA8AF20FE04FEAD9
:10269000491AB6FBFAFA0AEB8A0A4FEA4A0AD1F853
:1026A00008B0BAFBFBFA0AF1050A1FFA8AF24FF0EA
:1026B0000A0AB2FBFAF202F00104A2EB040ACAF31E
:1026C0004F034FF6FF7A0AEA0424022B01DBFF2BAB
:1026D00001DD02230024B1F806A04AEA040A4AEA0E
:1026E000030AA0F820A0B1F804A0B1F80CB04AEA9F
:1026F0000B0AB1F802B04AEA0B0AB1F800B04AEA94
:102700000B0A4AF4006A4AEA05058583BDE8F08FA2
:102710000021018041808180C180018141818181CE
:10272000C1810721018270470021018041808180A1
:10273000C1800221816000218181704721B102881E
:1027400042F04002028004E002884FF6BF731A4054
:102750000280704721B1828B42F48062828304E060
:10276000828B4FF6FF331A408283704702884FF204
:10277000FF731A40028002880A4302807047B1F555
:10278000804F04D1028842F48042028004E0028833
:102790004BF6FF731A40028070474FF6FF6291427A
:1027A00004D0028842F48072028004E002884FF66E
:1027B000FF631A400280704721B1828842F0040210
:1027C000828004E082884FF6FB731A408280704753
:1027D00021B1828842F01002828004E082884FF6A4
:1027E000EF731A408280704730B500220023848B3B
:1027F0004FF240052C40848302240484828B0C8891
:10280000B4F5007F01D00C8814B94FF4807308E050
:102810000C88B4F5407F03D00C88B4F5807F00D1DC
:1028200000238C888D892C434D882C431C4344F411
:1028300000642243828330BD0146888970478181CC
:10284000704721B1028842F40052028004E00288FD
:102850004DF6FF731A4002807047018841F48051A1
:102860000180704702460020012901D0108B00E052
:10287000908A70470146088A70471AB183880B43D3
:10288000838002E083888B438380704730B50024C7
:1028900000230C110125A540ABB2AAB185881D43C8
:1028A000858014E00030014000380040003C0040CA
:1028B00000340140005001400054014008380240FB
:1028C00000127A000024F40085889D43858030BD85
:1028D0000246002013890B400BB1012000E00020CC
:1028E0007047CA4302817047F0B5024600200024B9
:1028F0000023002501F00F070126BE40B4B20B11E2
:1029000001269E40B3B2968806EA03051689264042
:1029100016B10DB1012000E00020F0BD10B500227D
:1029200001F00F040123A3409AB2D343038110BDE9
:1029300010B501218803FEF762FE00214FF48040AC
:10294000FEF75DFE10BD1C49086070471B49086218
:10295000704730B500228B071C0F0F2303FA04F2D7
:10296000154B08338C1053F824309343124C083421
:102970008D1044F8253023468C1053F824308C07F2
:10298000240F00FA04F423430B4C08348D1044F850
:10299000253030BD0949DC310860704708490860BE
:1029A0007047002004492031096801F4807109B1A1
:1029B000012000E00020704700380140000027425D
:1029C0000004274210B50446FE48844208D1012184
:1029D0000846FEF714FE00210120FEF710FE9DE0E0
:1029E000B4F1804F08D101210846FEF7F7FD002120
:1029F0000120FEF7F3FD91E0F348844208D1012164
:102A00000220FEF7EBFD00210220FEF7E7FD85E046
:102A1000EE48844208D101210420FEF7DFFD0021A9
:102A20000420FEF7DBFD79E0E948844208D101216A
:102A30000820FEF7D3FD00210820FEF7CFFD6DE052
:102A4000E448844208D101211020FEF7C7FD00218F
:102A50001020FEF7C3FD61E0DF48844208D1012168
:102A60002020FEF7BBFD00212020FEF7B7FD55E03A
:102A7000DA48844208D101210220FEF7C0FD00217E
:102A80000220FEF7BCFD49E0D548844209D101216E
:102A90000804FEF7B4FD00214FF48030FEF7AFFDCF
:102AA0003CE0D048844209D101214804FEF7A7FD4B
:102AB00000214FF40030FEF7A2FD2FE0CA48844207
:102AC00009D101218804FEF79AFD00214FF48020EE
:102AD000FEF795FD22E0C548844208D1012140203F
:102AE000FEF77CFD00214020FEF778FD16E0C0488F
:102AF000844208D101218020FEF770FD0021802052
:102B0000FEF76CFD0AE0BB48844207D10121801525
:102B1000FEF764FD0021A015FEF760FD10BD002248
:102B20000288A84B98420ED0AC4B98420BD0B0F123
:102B3000804F08D0A44B984205D0A44B984202D0B5
:102B4000A34B984204D14FF68F731A404B881A4317
:102B5000A04B984207D0A04B984204D04FF6FF43B9
:102B60001A400B891A4302804B68C3620B880385A5
:102B7000944B984202D0994B984201D18B7A0386AC
:102B80000123838270474FF0FF31416000210180B3
:102B900001814180817270470185828270470A46B7
:102BA000002101884FF68F7319401143018070474F
:102BB00041627047C16270470146486A70470146EA
:102BC000088D704721B1028842F00202028004E0C1
:102BD00002884FF6FD731A400280704721B10288C7
:102BE00042F00402028004E002884FF6FB731A40B0
:102BF0000280704721B1028842F08002028004E026
:102C000002884FF67F731A400280704702884FF6A1
:102C1000F7731A40028002880A43028070470288D4
:102C20004FF6FF431A40028002880A430280704731
:102C300021B1028842F00102028004E002884FF6CE
:102C4000FE731A400280704770B5002400220023F2
:102C5000058C4FF6FE7635400584028C8388048B04
:102C60004FF68F752C40B51E2C400D882C43751ED9
:102C70002A408D892A434D882A43524DA84202D0CA
:102C8000564DA84213D14FF6F7752A40CD892A43F5
:102C90004FF6FB752A408D882A434FF6FF652B407F
:102CA0004FF6FF552B400D8A2B434D8A2B438380D3
:102CB00004838D684563028470BD70B500240022D2
:102CC0000023058C4FF6EF7635400584028C83880F
:102CD000048B48F6FF752C404FF6FF452C400D88BD
:102CE0004FF6FF7606EA05252C434FF6DF752A409E
:102CF0008D8906EA05152A434D8806EA05152A43FB
:102D0000304DA84202D0354DA8421DD14FF67F75F7
:102D10002A40CD894FF6FF7606EA05152A434FF67D
:102D2000BF752A408D8806EA05152A434FF6FF3500
:102D30002B404FF2FF752B400D8A06EA85052B4389
:102D40004D8A06EA85052B43838004838D6885635D
:102D5000028470BD70B5002400220023058C4FF65C
:102D6000FF6635400584028C8388848B4FF68F750F
:102D70002C404FF6FC752C400D882C434FF6FF5528
:102D80002A408D894FF6FF7606EA05252A434D88AD
:102D900006EA05252A430B4DA84202D00F4DA84252
:102DA00038D14FF2FF752A40CD894FF6FF7606EAFB
:102DB00005252A434FF6FF352A408D8806EA05256A
:102DC0002A4319E0000001400004004000080040D0
:102DD000000C0040001000400014004000040140BE
:102DE00000400140004401400048014000180040FC
:102DF000001C0040002000404EF6FF752B404DF6B1
:102E0000FF752B400D8A06EA05152B434D8A06EA0D
:102E100005152B43838084838D68C563028470BD50
:102E200070B5002200230024058C4EF6FF76354055
:102E30000584038C8488828B48F6FF752A404FF600
:102E4000FF452A400D884FF6FF7606EA05252A43FE
:102E50004DF6FF752B408D8906EA05352B434D88CD
:102E600006EA05352B43FE4DA84202D0FD4DA8428F
:102E700008D14BF6FF752C400D8A4FF6FF7606EA17
:102E800085152C43848082838D680564038470BD1E
:102E9000002101804180818081608181C181018226
:102EA0004182704770B50346002000241846183050
:102EB00001258D40ACB21D8CA5431D8409B10829A4
:102EC0000AD100EB610005684FF68F76354005604A
:102ED0000568154305600FE00D1FC5F34E05284436
:102EE000056848F6FF763540056005684FF6FF76C1
:102EF00006EA02263543056070BD41637047816371
:102F00007047C1637047016470470A460021018B16
:102F10004FF68F7319401143018370470A46002111
:102F2000018B48F6FF7319404FF6FF7303EA022343
:102F30001943018370470A460021818B4FF68F7336
:102F400019401143818370470A460021818B48F65E
:102F5000FF7319404FF6FF7303EA0223194381837D
:102F600070470A460021018B4FF6F7731940114351
:102F7000018370470A460021018B4FF2FF7319400D
:102F80004FF6FF7303EA02231943018370470A4691
:102F90000021818B4FF6F7731940114381837047ED
:102FA0000A460021818B4FF2FF7319404FF6FF73E1
:102FB00003EA02231943818370470A460021018BEB
:102FC0004FF6FB7319401143018370470A460021F5
:102FD000018B4FF6FF3319404FF6FF7303EA0223CC
:102FE0001943018370470A460021818B4FF6FB731A
:102FF00019401143818370470A460021818B4FF6A7
:10300000FF3319404FF6FF7303EA0223194381830C
:1030100070470A460021018B4FF67F731940114318
:10302000018370470A460021018BC1F30E014FF660
:10303000FF7303EA02231943018370470A46002104
:10304000818B4FF67F7319401143818370470A4685
:103050000021818BC1F30E014FF6FF7303EA0223B7
:103060001943818370470A460021018C4FF6FD7396
:1030700019401143018470470A460021018C4FF624
:10308000F77319401143018470470A460021018CEF
:103090004FF6DF7319404FF6FF7303EA021319432B
:1030A000018470470A460021018C4FF67F73194056
:1030B0004FF6FF7303EA02131943018470470A466F
:1030C0000021018C4FF6FF5319404FF6FF7303EABE
:1030D00002231943018470470A460021018C4FF2F4
:1030E000FF7319404FF6FF7303EA0223194301846B
:1030F00070470A460021018C4DF6FF7319404FF6C8
:10310000FF7303EA023319430184704730B500238B
:1031100001248C40A3B2048C9C430484048C02FAE6
:1031200001F5ADB22C43048430BD30B50023042436
:103130008C40A3B2048C9C430484048C02FA01F5F5
:10314000ADB22C43048430BD828B4FF2FF331A4062
:103150008283828B4FF6FF7303EA01231A43828333
:103160007047F0B50C461546002100220026078C5A
:103170004EF6FF7C07EA0C070784818B028C4FF622
:10318000FF7707EA043640F6FF4739404FF6FF77EE
:1031900007EA052739434FF6FF7707EA0337394334
:1031A00045F6FF773A4046F480573A4381830284DC
:1031B000F0BD828B4FF6F3731A408283828B0A43F1
:1031C00082837047F0B50C46154600210022002688
:1031D000078C4FF6FF6C07EA0C070784818B028C83
:1031E0004FF6FF7707EA04264FF60C7739404FF683
:1031F000FF7707EA03172F4339434FF2FF573A404F
:1032000046F480773A4381830284F0BD028B4FF20B
:10321000FF331A400283028B4FF6FF7303EA012348
:103220001A4302837047F0B50C4615460021002270
:103230000026078C4FF6EF7C07EA0C070784018B0A
:10324000028C4FF6FF7707EA041640F6FF47394035
:103250004FF6FF7707EA033739434FF6FF7703E06E
:10326000000001400004014007EA052739434FF6FA
:103270005F773A4046F010073A4301830284F0BD7D
:10328000028B4FF6F3731A400283028B0A430283C8
:103290007047F0B50C46154600210022068C4FF60B
:1032A000FE773E400684018B028C4FF60C7631404F
:1032B0007E1C06EA03162E4331434FF6F576324064
:1032C00044F00106324301830284F0BD70B5054627
:1032D0000C46208850B92389A28861882846FFF7C8
:1032E000D8FFE1882846FFF7CBFF25E02088042897
:1032F0000AD12389A28861882846FFF794FFE188D4
:103300002846FFF783FF17E0208808280AD1238981
:10331000A28861882846FFF755FFE1882846FFF715
:1033200048FF09E02389A28861882846FFF719FF32
:10333000E1882846FFF708FF70BD00210180418029
:10334000012181800021C180018170472DE9F04178
:1033500005460C4600260127608808B9022600E0D1
:103360000026A088012801D1022700E0012720883B
:10337000A0B92389A28861882846FFF78AFFE188DF
:103380002846FFF77DFF23893A4631462846FFF756
:103390004AFFE1882846FFF739FF13E02389A28816
:1033A00061882846FFF73FFFE1882846FFF72EFF98
:1033B00023893A4631462846FFF76BFFE1882846C5
:1033C000FFF75EFFBDE8F0810146486B704701469C
:1033D000886B70470146C86B70470146086C7047A0
:1033E0000A884B881A438B881A43CB881A430B8967
:1033F0001A434B891A438B891A43A0F8442070471B
:103400000021018041808180C180018141818181D1
:10341000704731B1B0F8442042F40042A0F8442093
:1034200005E0B0F84420C2F30E02A0F84420704733
:1034300021B1828842F00402828004E082884FF643
:10344000FB731A408280704721B1828842F00102EA
:10345000828004E082884FF6FE731A4082807047B3
:103460001AB183890B43838102E083898B43838173
:1034700070478182704702460020138A0B400BB1CF
:10348000012000E000207047CA430282704730B537
:103490000246002000230024158A05EA01039589CD
:1034A00005EA010413B10CB1012000E0002030BD99
:1034B000CA430282704741EA0203A0F848307047CD
:1034C0001AB183890B43838102E083898B43838113
:1034D000704721B1828842F00802828004E082882D
:1034E0004FF6F7731A408280704701894FF6F872E1
:1034F0001140018170470A46002101894FF68F7300
:10350000194011430181704730B504460D462946E4
:103510002046FFF7F0FF208940F00700208130BDF2
:103520002DE9F04104460D4616461F46602D06D192
:103530003B46012231462046FFF775FE05E03B463B
:10354000012231462046FFF7A4FE29462046FFF718
:10355000D2FF208940F007002081BDE8F08130B51E
:103560000C4600210189C9B24FF6FF7505EA032513
:10357000154325432943018130BD2DE9F04105461E
:103580000E4617469846002443463A46314628469A
:10359000FFF7E5FF2C894FF6F870044044F007046C
:1035A0004FF68F70044044F070042C81BDE8F08128
:1035B000F0B504460D4616461F463B4632462946A0
:1035C0002046FFF7CCFF208940F480402081F0BDE9
:1035D00082884FF68F731A40828082880A438280E5
:1035E000704702894FF6F8731A40028102890A4334
:1035F0000281704702894FF67F731A400281028967
:103600000A4302817047F0B50C4615461E4600215C
:10361000002200230189028B038C4FF6F877394092
:1036200021434FF6FC473A4040F201173A434FF628
:10363000DD773B404FF6FF7707EA06172F433B4302
:10364000018102830384F0BD21B1828842F08002AF
:10365000828004E082884FF67F731A408280704730
:10366000A0F850107047000010B50446FA48844294
:1036700008D101211020FDF7C2FF00211020FDF725
:10368000BEFF57E0F548844209D101214804FDF707
:10369000A5FF00214FF40030FDF7A0FF4AE0F048FD
:1036A000844209D101218804FDF798FF00214FF4DD
:1036B0008020FDF793FF3DE0EA48844209D10121D3
:1036C000C804FDF78BFF00214FF40020FDF786FFB3
:1036D00030E0E548844209D101210805FDF77EFF6D
:1036E00000214FF48010FDF779FF23E0DF4884428A
:1036F00008D101212020FDF782FF00212020FDF7C5
:103700007EFF17E0DA48844209D101218807FDF7DE
:1037100065FF00214FF08040FDF760FF0AE0D548CB
:10372000844207D101214005FDF758FF00216005C3
:10373000FDF754FF10BD2DE9FF4705460E46002456
:10374000A14600BFA046B08900B100BF2C8A24F476
:103750004054F08804432C82AC8941F20C608443CD
:10376000B08831890843718908430443AC81AC8A2D
:1037700024F44074B0890443AC826846FDF7BFFD71
:10378000B548854202D0B948854202D1DDF80C9097
:1037900001E0DDF80890A88900F4004040B109EB91
:1037A000C90000EB091031684900B0FBF1F707E0F0
:1037B00009EBC90000EB091031688900B0FBF1F793
:1037C0006420B7FBF0F004012009642101FB1078AC
:1037D000A88900F4004040B1322000EBC800B0FBE3
:1037E000F1F000F00700044308E0322000EB08107D
:1037F0006421B0FBF1F000F00F0004432C81BDE820
:10380000FF874FF41651016000218180C180018142
:103810000C21418100218181704710B502460020B2
:10382000108A20F470600B884C8823438C882343D3
:10383000CC8823431843108210BD002101804180B1
:103840008180C180704721B1828942F40052828117
:1038500004E082894DF6FF731A4082817047028B23
:1038600002F47F420283028B0A430283704721B134
:10387000828942F40042828103E08289C2F30E020F
:103880008281704721B1828A42F40062828204E020
:10389000828A4FF2FF731A4082827047C1F3080296
:1038A0008280704701468888C0F308007047028A0A
:1038B0004FF6F0731A400282028A0A43028270476E
:1038C00021B1828942F00202828104E082894FF6AE
:1038D000FD731A408281704782894FF2FF731A404C
:1038E000828182890A4382817047028A4FF6DF73A0
:1038F0001A400282028A0A430282704721B1028A78
:1039000042F48042028204E0028A4BF6FF731A40BE
:1039100002827047818941F001018181704721B1A4
:10392000828A42F00802828204E0828A4FF6F773AC
:103930001A4082827047028BD2B20283028B42EA23
:1039400001220283704721B1828A42F020028282E2
:1039500004E0828A4FF6DF731A408282704721B1F9
:10396000828A42F01002828204E0828A4FF6EF736C
:103970001A4082827047828A4FF6FB731A40828215
:10398000828A0A438282704721B1828A42F002020F
:10399000828204E0828A4FF6FD731A408282704769
:1039A0001AB1838A0B43838202E0838A8B4383822A
:1039B0007047F0B50346002400260025002040F69D
:1039C0006A17B94200D100BF1846C1F3421401F092
:1039D0001F06012707FA06F5012C01D10C3004E07F
:1039E000022C01D1103000E014301AB107682F43C7
:1039F000076002E00768AF430760F0BD02460020A1
:103A0000B1F5007F00D100BF13880B400BB101203E
:103A100000E00020704701F40072B2F5007F00D191
:103A200000BFCA430280704770B5024600240023DD
:103A30000025002040F66A16B14200D100BFC1F354
:103A4000421501F01F03012606FA03F3012D13D1DD
:103A50009689334017E00000001001400044004008
:103A600000480040004C004000500040001401405D
:103A700000780040007C0040022D02D1168A3340BD
:103A800001E0968A33400C12012606FA04F41688E7
:103A9000344013B10CB1012000E0002070BD10B51E
:103AA0000022002340F66A14A14200D100BF0A128E
:103AB00001249440A3B2DC43048010BD10B5044639
:103AC0006FF00400FDF76CF8E11704EB5171C1F3DE
:103AD000C701394A11701046007800EB4001C1EB74
:103AE000C0104FF6FF7101EAC0003449088010BDD4
:103AF0000146314A12784A434FF0E0235A610022CE
:103B00009A611A46126942F001021A6100BF4FF031
:103B1000E022106900F001021AB100F48032002A9C
:103B2000F5D04FF0E022126922F001024FF0E023BD
:103B30001A6100229A6170470146204A12884A435E
:103B40004FF0E0235A6100229A611A46126942F04E
:103B500001021A6100BF4FF0E022106900F001027B
:103B60001AB100F48032002AF5D04FF0E022126939
:103B700022F001024FF0E0231A6100229A6170479F
:103B800070B504464FF4077094FBF0F0C6B24FF4E2
:103B9000077094FBF0F100FB114085B205E04FF493
:103BA0000770FFF7C9FF701EC6B2002EF7D115B11E
:103BB0002846FFF7C1FF70BD34000020360000200A
:103BC0001CB501212020FDF76BFCF02000900020A7
:103BD0008DF8040003208DF8050001208DF8070002
:103BE00069463048FDF708F91CBD10B5044614B10C
:103BF00001202D4908702C480078002836D010216B
:103C00002848FDF75BF970B120212648FDF756F9E9
:103C100048B140212348FDF751F920B180212148C6
:103C2000FDF74CF910BB0A20FFF7AAFF00201E4940
:103C3000087010211B48FDF741F908B9012010BD9B
:103C400020211848FDF73AF908B90220F7E740218A
:103C50001448FDF733F908B90320F0E78021114833
:103C6000FDF72CF901281BD10420E8E710210D48AD
:103C7000FDF724F9012813D120210A48FDF71EF988
:103C800001280DD140210748FDF718F9012807D177
:103C900080210448FDF712F9012801D1024908707A
:103CA0000020CCE700140240380000201CB50121A0
:103CB0002020FDF7F5FB4FF4C060009001208DF847
:103CC000040000208DF8060003208DF80500012077
:103CD0008DF8070069461048FDF78EF84FF4C06173
:103CE0000D48FDF705F94FF48070009001208DF824
:103CF000040000208DF8060003208DF80500022046
:103D00008DF8070069460448FDF776F84FF4807196
:103D10000148FDF7EDF81CBD001402401CB501215F
:103D20000846FDF706FC01210846FDF7B9FB012115
:103D30000220FDF7B5FB2020009002208DF8040042
:103D400001208DF8060003208DF8050000208DF875
:103D500007006946FE48FDF74FF808200090022052
:103D60008DF8040001208DF8060003208DF8050071
:103D700000208DF807006946F648FDF73DF801225E
:103D80000521F348FDF7C3F801220321F148FDF7AF
:103D9000BEF84FF6FF704FF08041C86200200885E2
:103DA0000846008B40F0010008830846008B40F471
:103DB000807008830846008C08840846008C0884BC
:103DC0000846008940F0030008810846008840F05A
:103DD000010008801CBD1CB501210220FDF7A9FBD4
:103DE00001210846FDF75CFB8020009002208DF841
:103DF000040001208DF8060003208DF80500002046
:103E00008DF807006946D248FCF7F6FF4020009085
:103E100002208DF8040001208DF8060003208DF8A3
:103E2000050000208DF807006946C948FCF7E4FF4B
:103E300002220721C648FDF76AF802220621C4487B
:103E4000FDF765F84FF6FF70C34908600020091FB1
:103E50000880C1481438008840F00100BE49143978
:103E600008800846008840F480700880BA480C3802
:103E70000088B9490C390880084600880880B6488F
:103E80002438008840F00300B34924390880B24840
:103E90002C38008840F00100AF492C3908801CBD47
:103EA0001CB501210420FDF744FB01210820FDF78A
:103EB000F7FA4FF40050009002208DF80400012022
:103EC0008DF8060003208DF8050000208DF807000E
:103ED0006946A248FCF790FF4FF480500090022002
:103EE0008DF8040001208DF8060003208DF80500F0
:103EF00000208DF8070069469848FCF77DFF0222F4
:103F00000D219648FDF703F802220C219348FCF797
:103F1000FEFF4FF6FF70924908600020091F0880DD
:103F20008F481438008840F001008D49143908800A
:103F30000846008840F48070088089480C38008862
:103F400087490C390880084600880880844824384E
:103F5000008840F0030082492439088080482C38CA
:103F6000008840F001007E492C3908801CBD1CB53A
:103F700001210820FDF7DDFA01210846FDF790FA3E
:103F80000120009002208DF8040001208DF8060029
:103F900003208DF8050000208DF8070069466C4865
:103FA000FCF72AFF022000908DF8040001208DF814
:103FB000060003208DF8050000208DF807006946F3
:103FC0006348FCF719FF022200216148FCF79FFFBC
:103FD000022201215E48FCF79AFF4FF6FF7061490B
:103FE00008600020091F08805E481438008840F0EF
:103FF00001005C49143908800846008840F480704C
:10400000088058480C38008856490C390880084602
:104010000088088053482438008840F00300514944
:10402000243908804F482C38008840F001004D4961
:104030002C3908801CBD00B589B001210846FDF768
:1040400078FA01210846FDF72BFA2020079002207C
:104050008DF8200001208DF8220003208DF821002A
:1040600000208DF8230007A93948FCF7C5FE02207F
:1040700007908DF8200001208DF8220003208DF894
:10408000210000208DF8230007A93148FCF7B4FE79
:10409000012205212E48FCF73AFF012211462C4847
:1040A000FCF735FF0020ADF810004FF69F70ADF81B
:1040B00012004FF6FF7005900020ADF8180004A91B
:1040C0004FF08040FEF72BFD00231A4603214FF0EE
:1040D0008040FFF798FA01A8FFF72FF90020ADF80C
:1040E0000C0001A94FF08040FFF7F0F8012188078C
:1040F000FFF7CAF9012211469007FFF7B1F9002135
:104100004FF08040FEF754FD01218807FEF790FD37
:1041100009B000BD00B589B001210220FDF709FA00
:1041200001210846FDF7BCF98020079002208DF898
:10413000200001208DF8220003208DF821000120AD
:104140008DF8230007A90248FCF756FE40200BE03B
:1041500000000240000402402C040040000C024019
:104160002C0800402C0C0040079002208DF8200005
:1041700001208DF8220003208DF8210001208DF808
:10418000230007A9C448FCF737FE02220721C248D2
:10419000FCF7BDFE02220621BF48FCF7B8FE002056
:1041A000ADF810004FF69F70ADF812004FF6FF709B
:1041B00005900020ADF8180004A9B848FEF7AFFC40
:1041C00000231A460321B548FFF71DFA01A8FFF79F
:1041D000B4F80020ADF80C0001A9B048FFF776F85C
:1041E0000121AE48FFF750F901221146AB48FFF715
:1041F00037F90021A948FEF7DBFC0121A748FEF7AB
:1042000017FD09B000BD00B589B001210420FDF7FC
:1042100090F901210820FDF743F94FF40050079071
:1042200002208DF8200001208DF8220003208DF857
:10423000210000208DF8230007A99948FCF7DCFD38
:104240004FF48050079002208DF8200001208DF857
:10425000220003208DF8210000208DF8230007A9FB
:104260008F48FCF7C9FD02220D218D48FCF74FFE57
:1042700002220C218A48FCF74AFE0020ADF810000B
:104280004FF69F70ADF812004FF6FF7005900020BA
:10429000ADF8180004A98348FEF741FC00231A4634
:1042A00003218048FFF7AFF901A8FFF746F8002087
:1042B000ADF80C0001A97B48FFF708F80121794807
:1042C000FFF7E2F8012211467648FFF7C9F800210E
:1042D0007448FEF76DFC01217248FEF7A9FC09B095
:1042E00000BD00B589B001210820FDF722F90121A8
:1042F0000846FDF7D5F807A8FCF7C6FD0320079090
:1043000002208DF8200001208DF8220003208DF876
:10431000210000208DF8230007A95F48FCF76CFD01
:10432000022200215C48FCF7F2FD022201215A48DA
:10433000FCF7EDFD0020ADF810004FF69F70ADF8D2
:104340001200594805900020ADF8180004A95748FC
:10435000FEF7E5FB00231A4603215448FFF753F903
:1043600001A8FEF7EAFF0A20ADF80C0001A94F48AA
:10437000FEF7ACFF01214D48FFF786F801221146F8
:104380004A48FFF76DF800214848FEF711FC01216B
:104390004648FEF74DFC09B000BD4FF08041486231
:1043A00070473E492431086070473E492431086017
:1043B00070473E492431086070470146022906D003
:1043C00003290DD0042914D0052924D11AE04FF077
:1043D0008042526A10B200224FF080435A621CE0C1
:1043E0002E4A2432126810B200222C4B24331A6059
:1043F00013E02C4A2432126810B20022294B2433D5
:104400001A600AE0294A2432126810B20022274BAF
:1044100024331A6001E0002000BF00BF704770B570
:104420000546022D06D0032D0FD0042D18D0052DE2
:104430002CD120E00020FFF7B0FF0A20FFF7A0FBFF
:104440004FF08040406A04B222E00020FFF7A9FF4D
:104450000A20FFF795FB11482430006804B217E0EA
:104460000020FFF7A2FF0A20FFF78AFB0D48243047
:10447000006804B20CE00020FFF79BFF0A20FFF762
:104480007FFB0A482430006804B201E0002400BF2A
:1044900000BF204670BD0000000002400004004044
:1044A000000C024000080040FFFF0500000C004027
:1044B0001CB501212020FCF7F3FF0F200090002005
:1044C0008DF8040003208DF8050001208DF8070009
:1044D00069467848FCF790FC1CBD0EB5FFF7E8FF75
:1044E00001218803FDF736F800210520FEF731FA97
:1044F00001210520FEF72DFA02210520FEF729FAF9
:1045000003210520FEF725FA0F20009000208DF8EA
:10451000040008208DF8050001208DF8060068468B
:10452000FCF76AFB06208DF8080001208DF80900D1
:1045300002208DF80A0001208DF80B0002A8FCF77C
:10454000E2FA07208DF8080001208DF8090002200A
:104550008DF80A0001208DF80B0002A8FCF7D3FAB1
:1045600008208DF8080001208DF8090002208DF840
:104570000A0001208DF80B0002A8FCF7C4FA0920FC
:104580008DF8080001208DF8090002208DF80A003E
:1045900001208DF80B0002A8FCF7B5FA0EBD10B58E
:1045A0000520FFF7EDFA44480078401C42490870A6
:1045B0004248006808B9012000E000203F49086037
:1045C0003D480078042802DD00203B4908700120A6
:1045D000FCF783FB10BD10B50520FFF7D1FA374873
:1045E000006808B9012000E0002034490860324822
:1045F000007801280AD132480078401C3049087000
:1046000008460078052801DD012008702A48007856
:1046100002280AD12A480078401C29490870084617
:104620000078042801DD012008700220FCF755FB0A
:1046300010BD10B50520FFF7A3FA2048006808B99F
:10464000012000E000201D4908601B480078012877
:104650000AD11B480078401E1949087008460078A6
:10466000012801DA052008701348007802280AD1D1
:1046700013480078401E1249087008460078012847
:1046800001DA042008700420FCF727FB10BD10B5E8
:104690000520FFF775FA0948006808B9012000E015
:1046A0000020064908600120064908700820FCF730
:1046B00014FB10BD001402400A000020A0824242F8
:1046C0000B00002009000020012001E0411E88B2FB
:1046D0000028FBD170471CB501210820FCF7E0FE43
:1046E00001208DF8040000208DF8060010200090B5
:1046F00003208DF805006946FE48FCF77DFB01218B
:104700000820FCF7CDFE01208DF8040000208DF874
:1047100006000820009003208DF805006946F54842
:10472000FCF76AFB01210820FCF7BAFE01208DF896
:10473000040000208DF806000120009003208DF871
:1047400005006946EB48FCF757FB01210820FCF700
:10475000A7FE01208DF8040000208DF8060002203D
:10476000009003208DF805006946E248FCF744FB01
:1047700001210820FCF794FE01208DF804000020A0
:104780008DF806000420009003208DF8050069468E
:10479000D848FCF731FB1CBD70B504460D46002619
:1047A00025B10821D348FCF7A3FB03E00821D14839
:1047B000FCF7A0FB1021CF48FCF79CFBFFF784FF20
:1047C00000261BE00121CB48FCF794FBFFF77CFFA0
:1047D00004F0800020B10221C648FCF789FB03E009
:1047E0000221C448FCF786FB0121C248FCF780FB8C
:1047F0006006040EFFF768FF701CC6B2082EE1DBEE
:104800000821BC48FCF774FBFFF75EFF1021B94894
:10481000FCF76EFBFFF758FF70BD10B50446002192
:104820002046FFF7B9FF10BD70B505460C460021C4
:104830002846FFF7B1FF01212046FFF7ADFF70BD0D
:1048400070B5002419E004F1B001C8B20021FFF7EF
:10485000A3FF00210220FFF79FFF00211020FFF798
:104860009BFF002505E001210020FFF795FF681C54
:10487000C5B2802DF7DB601CC4B2082CE3DB70BD31
:104880002DE9F04704460E461746984600251CE0E1
:1048900004F1B0012944C8B20021FFF77DFF0021D7
:1048A0000220FFF779FF00211020FFF775FFB146C6
:1048B00007E001210020FFF76FFF09F1010000F080
:1048C000FF09C145F5DB681CC5B2381BA842DFDC17
:1048D000BDE8F08770B5002419E004F1B001C8B25A
:1048E0000021FFF759FF00210220FFF755FF0021AB
:1048F0001020FFF751FF002505E00121FF20FFF701
:104900004BFF681CC5B2802DF7DB601CC4B2082CBD
:10491000E3DB70BD10B500218D20FFF73DFF0021C6
:104920001420FFF739FF0021AF20FFF735FF10BD3E
:1049300010B500218D20FFF72FFF00211020FFF779
:104940002BFF0021AE20FFF727FF10BD70B50446F6
:104950000D4605F1B001C8B20021FFF71DFF10217F
:1049600041EA14100021FFF717FF04F00F0141F096
:1049700001000021FFF710FF70BD2DE9F0478046D0
:104980000E4691461F4600250024A9F12000C5B21D
:10499000B8F17F0F02DDA046B01CC6B2102F23D1A4
:1049A00031464046FFF7D2FF002408E004EB051132
:1049B000514A505C0121FFF7EFFE601CC4B2082C85
:1049C000F4DB701CC1B24046FFF7C0FF002409E0D1
:1049D00004EB05110831484A505C0121FFF7DCFE69
:1049E000601CC4B2082CF3DB0C2F12D131464046B8
:1049F000FFF7ACFF00240AE005EB45013F4A02EB5C
:104A00004101085D0121FFF7C7FE601CC4B2062CFE
:104A1000F2DB182F23D131464046FFF797FF0024E1
:104A200008E004EB0511364A505C0121FFF7B4FEA3
:104A3000601CC4B20C2CF4DB701CC1B24046FFF702
:104A400085FF002409E004EB051118312C4A505C65
:104A50000121FFF7A1FE601CC4B20C2CF3DBBDE802
:104A6000F08710B50246012000E050430B1EA1F173
:104A70000104E1B2F9D110BD2DE9FF4F81B0064626
:104A8000174698460E9C002000908246002F0CDAB4
:104A900023462D2230460299FFF76FFF204604EB94
:104AA000D07106EB6101CEB27F42002540E0A8EB59
:104AB0000500401EC1B20A20FFF7D3FFB7FBF0F09C
:104AC0000A21B0FBF1F201FB1209BAF1000F1ED16D
:104AD000A8F10100A8421ADDB9F1000F15D1A346D3
:104AE00004EBDB71491001FB0561C8B223462022AB
:104AF000029907E0000C0240361101080E0F010870
:104B000026170108FFF739FF10E04FF0010AA3460E
:104B100004EBDB71491001FB0561C8B209F13001FA
:104B2000CAB223460299FFF728FF00BF681CC5B22E
:104B30004545BCDB05B0BDE8F08F2DE9F0410446EA
:104B40000F461546984600260FE0AA5D43463946B3
:104B50002046FFF712FF04F10800C4B27C2C02DDEE
:104B60000024B81CC7B2701CC6B2A85D0028ECD1E6
:104B7000BDE8F0812DE9F04180460E46154600273C
:104B800031464046FFF7E2FE00240AE0FE4A02EB0F
:104B90008511085D0121FFF7FFFD781CC7B2601C7D
:104BA000C4B2102CF2DB701CC1B24046FFF7CEFE3F
:104BB00000240CE06900491CF34A02EB4111085D36
:104BC0000121FFF7E9FD781CC7B2601CC4B2102CAC
:104BD000F0DBBDE8F0812DE9F05F06460F46904618
:104BE0001C46DDF828A04FF0000BE11704EB5171D3
:104BF000C910A4EBC10131B92046E11704EB517192
:104C0000C1F3C70506E02046E11704EB5171C91056
:104C1000491CCDB23D4615E029463046FFF796FEC9
:104C2000B1460BE059460BF1010B1AF801000121C6
:104C3000FFF7B2FD09F1010000F0FF09C145F1DB0A
:104C4000681CC5B2A542E7DBBDE8F09F70B5002443
:104C50001CE004F1B001C8B20021FFF79DFD002166
:104C60000846FFF799FD00211020FFF795FD00256C
:104C700008E0C64901EBC501085D0121FFF78CFD85
:104C8000681CC5B2802DF4DB601CC4B2082CE0DBCC
:104C900070BDF0B5144600267F2801DC3F2900DDF9
:104CA000F0BD0B46CF1701EB5777FF10C7F1070791
:104CB000FAB2CF1701EB5777FF10A1EBC707FDB290
:104CC000C5F107070123BB40DEB24CB1AF4B03EB8C
:104CD000C0039B5C3343AD4F07EBC007BB5408E0F8
:104CE000AA4B03EBC0039B5CB343A84F07EBC00781
:104CF000BB5400BFD4E72DE9F04706460F46904667
:104D00009946DDF820A034460CE03D4606E05246C8
:104D100029462046FFF7BDFF681CC5B24D45F6DDAC
:104D2000601CC4B24445F0DDFFF790FFBDE8F0879A
:104D30002DE9FF4F85B081468A46002004900390FC
:104D40000798A0EB09050898A0EB0A06CDF8089093
:104D5000CDF804A0002D01DD012705E00DB90027E5
:104D600002E04FF0FF376D42002E02DD4FF00108E8
:104D700006E016B94FF0000802E04FF0FF38764227
:104D8000B54201DD2C4600E034464FF0000B22E036
:104D9000019AD1B2029AD0B20122FFF77AFF0498A9
:104DA000284404900398304403900498A04205DD01
:104DB0000498001B04900298384402900398A04283
:104DC00005DD0398001B03900198404401900BF10E
:104DD00001001FFA80FB601C8345D9DDFFF736FF19
:104DE00009B0BDE8F08F2DE9F04706460F46904622
:104DF000002445460320A0EB480944E07A1BD1B2C9
:104E00003219D0B20122FFF744FF3A1BD1B2721916
:104E1000D0B20122FFF73DFF3A19D1B27219D0B2D8
:104E20000122FFF736FF7A19D1B23219D0B201222E
:104E3000FFF72FFF7A19D1B2321BD0B20122FFF750
:104E400028FF3A19D1B2721BD0B20122FFF721FF1D
:104E50007A1BD1B2321BD0B20122FFF71AFF3A1BE4
:104E6000D1B2721BD0B20122FFF713FF641CB9F15B
:104E7000000F03DAA000801D814404E0601B800065
:104E80000A3081446D1EAC42B8DDFFF7DFFEBDE89D
:104E9000F08710B5FFF71FFC01213D48FCF728F80B
:104EA00002213B48FCF724F808213948FCF720F898
:104EB00010213748FCF71CF804213548FCF718F896
:104EC000FFF702FC04213248FCF714F8FFF7FCFB63
:104ED00004212F48FCF70CF8FFF7F6FB0021AE2069
:104EE000FFF75AFC00210220FFF756FC002110209A
:104EF000FFF752FC0021B020FFF74EFC0021C82034
:104F0000FFF74AFC00210846FFF746FC002110206D
:104F1000FFF742FC00214020FFF73EFC00218120EA
:104F2000FFF73AFC0021FF20FFF736FC0021A1200B
:104F3000FFF732FC0021A620FFF72EFC0021A8205D
:104F4000FFF72AFC00213F20FFF726FC0021A420C8
:104F5000FFF722FC0021D320FFF71EFC00210846AA
:104F6000FFF71AFC0021D520FFF716FC0021F020E6
:104F7000FFF712FC0021D920FFF70EFC00212220B0
:104F8000FFF70AFC002105E039000020B80B0020E3
:104F9000000C0240DA20FFF7FFFB00211220FFF790
:104FA000FBFB0021DB20FFF7F7FB00212020FFF7B0
:104FB000F3FB00218D20FFF7EFFB00211420FFF70A
:104FC000EBFB0021AF20FFF7E7FBFFF739FC10BD3B
:104FD0002DE9F0478AB007460C461546984600264C
:104FE000B146B246681CFE49B1FBF0F9601C08FBF3
:104FF00000F06421B0FBF1F6601CB9FBF0FAF9484F
:10500000046037B1012F52D0022F7DD0032F4DD134
:10501000EBE001210846FCF79DFA01211020FCF786
:105020003FFA01220921F048FBF771FF4FF40070AD
:10503000089002208DF8240003208DF82500002020
:105040008DF8260001208DF8270008A9E648FBF717
:10505000D3FEA8B2ADF814000020ADF816000694F7
:105060008DF81E00ADF81C0005A9E048FDF757FDBE
:105070006020ADF800000120ADF802000020ADF87E
:105080000C0002960821D948FDF76BFF6946D74806
:10509000FDF7DAFD0121D548FDF7ACFD0121D3482C
:1050A000FEF7B7F90121D148FDF7C2FDEBE0012180
:1050B0000846FCF74FFA01211020FCF7F1F9012214
:1050C0000B21C948FBF723FF4FF400600890022032
:1050D0008DF8240003208DF8250000208DF826008F
:1050E00001208DF8270008A9BF48FBF785FEA8B26C
:1050F000ADF814000020ADF8160006948DF81E00DF
:10510000ADF81C0005A900E021E0B848FDF707FD57
:105110006020ADF800000120ADF802000020ADF8DD
:105120000C0002966946B148FDF7C7FD0821AF485B
:10513000FDF720FF0121AD48FDF75CFD0121AB48E3
:10514000FEF767F90121A948FDF772FD9BE00121F7
:105150000846FCF7FFF901211020FCF7A1F9012214
:105160000D21A148FBF7D3FE4FF400500890022018
:105170008DF8240003208DF8250000208DF82600EE
:1051800001208DF8270008A99748FBF735FEA8B243
:10519000ADF814000020ADF8160006948DF81E003E
:1051A000ADF81C0005A99148FDF7B9FC6020ADF8E9
:1051B00000000120ADF802000020ADF80C000296BE
:1051C00008218A48FDF7E3FE69468848FDF7C2FDDD
:1051D00001218648FDF70EFD01218448FEF719F9EB
:1051E00001218248FDF724FD4DE001210846FCF72E
:1051F000B1F901211020FCF753F901220E217A4860
:10520000FBF785FE4FF48040089002208DF82400C3
:1052100003208DF8250000208DF8260001208DF850
:10522000270008A97048FBF7E7FDA8B2ADF8140005
:105230000020ADF8160006948DF81E00ADF81C0095
:1052400005A96A48FDF76BFC6020ADF8000001205D
:10525000ADF802000020ADF80C00029669466348E4
:10526000FDF7DEFD08216148FDF79AFE01215F4848
:10527000FDF7C0FC01215D48FEF7CBF801215B483A
:10528000FDF7D6FC00BF00BF0AB0BDE8F0872DE9EE
:10529000F0478AB006460C4615461F464FF00008F8
:1052A000C146C246681C4E49B1FBF0F9601C784308
:1052B0006421B0FBF1F8601CB9FBF0FA4C480460C3
:1052C00016B1012E4DD14DE001210804FCF742F941
:1052D00001211020FCF7E4F8032205214248FBF7E6
:1052E00016FE2020089002208DF8240003208DF85F
:1052F000250000208DF8260001208DF8270008A940
:105300003948FBF779FDA8B2ADF814000020ADF8DC
:10531000160006948DF81E00ADF81C0005A935484E
:10532000FDF7FDFB6020ADF800000120ADF80200A4
:105330000020ADF80C00CDF8088008212D48FDF7BD
:1053400010FE69462B48FDF77FFC01212948FDF737
:1053500051FC01212748FEF75CF801212548FDF7A3
:1053600067FC5AE001210804FCF7F4F80121102041
:10537000FCF796F8032206211B48FBF7C8FD4020E6
:10538000089002208DF8240003208DF825000020CD
:105390008DF8260001208DF8270008A91248FBF798
:1053A0002BFDA8B2ADF814000020ADF8160006944D
:1053B0008DF81E00ADF81C0005A90E48FDF7AFFBE7
:1053C0006020ADF800000120ADF802000020ADF82B
:1053D0000C00CDF8088069460648FDF76EFC0BE02E
:1053E000007A030ABC0900200010024000000140BE
:1053F000CC090020004001400821F948FDF7BAFD22
:105400000121F748FDF7F6FB0121F548FEF701F809
:105410000121F348FDF70CFC00BF00BF0AB0BDE856
:10542000F0872DE9F0478AB007460C4615469846A6
:105430000026B146B246681CEA49B1FBF0F9601C8F
:1054400008FB00F06421B0FBF1F6601CB9FBF0FA38
:10545000E548046037B1012F51D0022F7ED0032FD1
:105460004CD1E9E001210220FCF774F8012104206D
:10547000FCF716F803220621DC48FBF748FD402024
:10548000089002208DF8240003208DF825000020CC
:105490008DF8260001208DF8270008A9D348FBF7D6
:1054A000ABFCA8B2ADF814000020ADF816000694CD
:1054B0008DF81E00ADF81C0005A9CD48FDF72FFBA7
:1054C0006020ADF800000120ADF802000020ADF82A
:1054D0000C0002960821C648FDF743FD6946C44802
:1054E000FDF7B2FB0121C248FDF784FB0121C04852
:1054F000FDF78FFF0121BE48FDF79AFBEAE001218D
:105500000220FCF727F801210420FBF7C9FF032242
:105510000721B648FBF7FBFC8020089002208DF89D
:10552000240003208DF8250000208DF8260001209E
:105530008DF8270008A9AD48FBF75EFCA8B2ADF8CE
:1055400014000020ADF8160006948DF81E00ADF88A
:105550001C0005A9A648FDF7E2FA00E01EE0602065
:10556000ADF800000120ADF802000020ADF80C00FD
:10557000029669469E48FDF7A0FB08219C48FDF76E
:10558000F9FC01219A48FDF735FB01219848FDF708
:1055900040FF01219648FDF74BFB9BE001210220D3
:1055A000FBF7D8FF01210420FBF77AFF0322082133
:1055B0008E48FBF7ACFC4FF48070089002208DF809
:1055C000240003208DF8250000208DF826000120FE
:1055D0008DF8270008A98548FBF70EFCA8B2ADF8A6
:1055E00014000020ADF8160006948DF81E00ADF8EA
:1055F0001C0005A97E48FDF792FA6020ADF8000076
:105600000120ADF802000020ADF80C000296082140
:105610007748FDF7BCFC69467548FDF79BFB012107
:105620007348FDF7E7FA01217148FDF7F2FE012109
:105630006F48FDF7FDFA4DE001210220FBF78AFFDC
:1056400001210420FBF72CFF032209216748FBF707
:105650005EFC4FF40070089002208DF824000320B7
:105660008DF8250000208DF8260001208DF82700F8
:1056700008A95E48FBF7C0FBA8B2ADF814000020F3
:10568000ADF8160006948DF81E00ADF81C0005A9B3
:105690005748FDF744FA6020ADF800000120ADF84E
:1056A00002000020ADF80C00029669465048FDF754
:1056B000B7FB08214E48FDF773FC01214C48FDF76C
:1056C00099FA01214A48FDF7A4FE01214848FDF757
:1056D000AFFA00BF00BF0AB0BDE8F08770B505465D
:1056E0000C4635B1012D10D0022D1AD0032D30D12A
:1056F00023E04048006860434FF47A71B0FBF1F654
:1057000031463D48FDF7F9FB23E03A480068604325
:105710004FF47A71B0FBF1F631463748FDF7EFFBF5
:1057200017E03448006860434FF47A71B0FBF1F63B
:1057300031463148FDF7E5FB0BE02E480068604339
:105740004FF47A71B0FBF1F631462B48FDF7DBFBE5
:1057500000BF00BF70BD70B505460C4635B1012DC8
:1057600010D0022D1AD0032D30D123E01E4800683E
:1057700060434FF47A71B0FBF1F631461C48FDF7F7
:10578000BCFB23E01848006860434FF47A71B0FB1B
:10579000F1F631461648FDF7B2FB17E012480068F3
:1057A00060434FF47A71B0FBF1F631461048FDF7D3
:1057B000A8FB0BE00C48006860434FF47A71B0FB23
:1057C000F1F631460A48FDF79EFB00BF00BF70BDF1
:1057D00070B505460C468DB1012D25D119E00000AC
:1057E00000400140007A030AC0090020000802407E
:1057F00000040140BC090020000001400B48006883
:1058000060436421B0FBF1F631460948FDF775FBB2
:105810000AE00648006860436421B0FBF1F63146B7
:105820000348FDF76CFB00BF00BF70BDCC09002032
:1058300000400140014600BF704700BFFE4A128889
:1058400002F04002002AF9D0C2B2FB4B9A807047A6
:1058500030B587B005460C46062D54D2DFE805F07A
:105860000354A5FAF8F701210220FBF719FE0121E4
:105870001020FBF76FFE07220621F048FBF747FBDD
:1058800007221146ED48FBF742FBC020059002209D
:105890008DF818008DF8190000208DF81A000120ED
:1058A0008DF81B0005A9E548FBF7A6FA0194002036
:1058B000ADF80800ADF80A00ADF80C00ADF8100026
:1058C0000C20ADF80E0001A9DB48FDF734FF0121E3
:1058D000D948FDF7B8FF012240F22551D648FEF71E
:1058E00068F825208DF8000003208DF801008DF860
:1058F000020001208DF803006846FBF704F920211F
:10590000CD48FEF788F8C5E101210820FBF7C8FD66
:1059100001214804FBF70DFE07220521C848FBF7CB
:10592000F6FA07220621C648FBF7F1FA6020059037
:1059300002208DF818008DF8190000208DF81A004B
:1059400001208DF81B0005A9BD48FBF755FA01940D
:105950000020ADF80800ADF80A00ADF80C00ADF875
:1059600010000C20ADF80E0001A9B648FDF7E3FECB
:105970000121B448FDF767FF012240F22551B148EB
:10598000FEF717F826208DF8000000208DF80100A2
:1059900001208DF802008DF803006846FBF7B3F88C
:1059A0002021A848FEF737F874E101210220FBF717
:1059B00077FD01218804FBF7BCFD07220A219F48DF
:1059C000FBF7A5FA07220B219C48FBF7A0FA4FF43E
:1059D0004060059002208DF818008DF81900002015
:1059E0008DF81A0001208DF81B0005A99348FBF7DC
:1059F00003FA01940020ADF80800ADF80A00ADF8F4
:105A00000C00ADF810000C20ADF80E0001A98E4876
:105A1000FDF791FE01218C48FDF715FF012240F2B0
:105A200025518948FDF7C5FF27208DF80000032088
:105A30008DF8010001208DF802008DF80300684602
:105A4000FBF761F820218048FDF7E5FF22E1B9E08E
:105A500053E0FFE701210420FBF722FD0121C804E8
:105A6000FBF767FD08220A217848FBF750FA082265
:105A70000B217648FBF74BFA4FF44060059002206B
:105A80008DF818008DF8190000208DF81A000120FB
:105A90008DF81B0005A96D48FBF7AEF901940020B5
:105AA000ADF80800ADF80A00ADF80C00ADF8100034
:105AB0000C20ADF80E0001A96548FDF73CFE012160
:105AC0006348FDF7C0FE012240F225516048FDF712
:105AD00070FF34208DF8000002208DF801000320B3
